{
  "contractName": "ParticiparContract",
  "abi": [
    {
      "constant": true,
      "inputs": [
        {
          "name": "",
          "type": "address"
        },
        {
          "name": "",
          "type": "uint256"
        }
      ],
      "name": "votosCiudadano",
      "outputs": [
        {
          "name": "",
          "type": "uint8"
        }
      ],
      "payable": false,
      "stateMutability": "view",
      "type": "function"
    },
    {
      "constant": true,
      "inputs": [
        {
          "name": "",
          "type": "uint256"
        }
      ],
      "name": "votosProyectos",
      "outputs": [
        {
          "name": "favor",
          "type": "uint8"
        },
        {
          "name": "neutro",
          "type": "uint8"
        },
        {
          "name": "contra",
          "type": "uint8"
        }
      ],
      "payable": false,
      "stateMutability": "view",
      "type": "function"
    },
    {
      "constant": true,
      "inputs": [
        {
          "name": "",
          "type": "uint256"
        }
      ],
      "name": "proyectos",
      "outputs": [
        {
          "name": "",
          "type": "bool"
        }
      ],
      "payable": false,
      "stateMutability": "view",
      "type": "function"
    },
    {
      "inputs": [],
      "payable": false,
      "stateMutability": "nonpayable",
      "type": "constructor"
    },
    {
      "constant": false,
      "inputs": [
        {
          "name": "_id_proyecto",
          "type": "uint256"
        }
      ],
      "name": "cargarProyecto",
      "outputs": [],
      "payable": false,
      "stateMutability": "nonpayable",
      "type": "function"
    },
    {
      "constant": false,
      "inputs": [
        {
          "name": "_id_proyecto",
          "type": "uint256"
        }
      ],
      "name": "votarAFavor",
      "outputs": [],
      "payable": false,
      "stateMutability": "nonpayable",
      "type": "function"
    },
    {
      "constant": false,
      "inputs": [
        {
          "name": "_id_proyecto",
          "type": "uint256"
        }
      ],
      "name": "votarNeutro",
      "outputs": [],
      "payable": false,
      "stateMutability": "nonpayable",
      "type": "function"
    },
    {
      "constant": false,
      "inputs": [
        {
          "name": "_id_proyecto",
          "type": "uint256"
        }
      ],
      "name": "votarEnContra",
      "outputs": [],
      "payable": false,
      "stateMutability": "nonpayable",
      "type": "function"
    },
    {
      "constant": true,
      "inputs": [
        {
          "name": "_id_proyecto",
          "type": "uint256"
        }
      ],
      "name": "getVotosTotales",
      "outputs": [
        {
          "name": "favor",
          "type": "uint8"
        },
        {
          "name": "neutro",
          "type": "uint8"
        },
        {
          "name": "contra",
          "type": "uint8"
        },
        {
          "name": "total",
          "type": "uint8"
        }
      ],
      "payable": false,
      "stateMutability": "view",
      "type": "function"
    },
    {
      "constant": true,
      "inputs": [
        {
          "name": "_id_proyecto",
          "type": "uint256"
        }
      ],
      "name": "getMiVoto",
      "outputs": [
        {
          "name": "",
          "type": "uint8"
        }
      ],
      "payable": false,
      "stateMutability": "view",
      "type": "function"
    }
  ],
  "bytecode": "0x608060405234801561001057600080fd5b50336000806101000a81548173ffffffffffffffffffffffffffffffffffffffff021916908373ffffffffffffffffffffffffffffffffffffffff160217905550610cc3806100606000396000f3fe608060405234801561001057600080fd5b50600436106100935760003560e01c80637efbacfc116100665780637efbacfc146101e8578063b42155a914610216578063e234b9e114610244578063f898555c14610272578063fc5ca186146102e157610093565b80631ff46dd6146100985780633562eb43146100e85780634060217c14610116578063437f7d0214610186575b600080fd5b6100c4600480360360208110156100ae57600080fd5b8101908080359060200190929190505050610327565b604051808260038111156100d457fe5b60ff16815260200191505060405180910390f35b610114600480360360208110156100fe57600080fd5b810190808035906020019092919050505061038e565b005b6101626004803603604081101561012c57600080fd5b81019080803573ffffffffffffffffffffffffffffffffffffffff169060200190929190803590602001909291905050506105a8565b6040518082600381111561017257fe5b60ff16815260200191505060405180910390f35b6101b26004803603602081101561019c57600080fd5b81019080803590602001909291905050506105d7565b604051808460ff1660ff1681526020018360ff1660ff1681526020018260ff1660ff168152602001935050505060405180910390f35b610214600480360360208110156101fe57600080fd5b8101908080359060200190929190505050610628565b005b6102426004803603602081101561022c57600080fd5b81019080803590602001909291905050506106fb565b005b6102706004803603602081101561025a57600080fd5b8101908080359060200190929190505050610915565b005b61029e6004803603602081101561028857600080fd5b8101908080359060200190929190505050610b2e565b604051808560ff1660ff1681526020018460ff1660ff1681526020018360ff1660ff1681526020018260ff1660ff16815260200194505050505060405180910390f35b61030d600480360360208110156102f757600080fd5b8101908080359060200190929190505050610c1d565b604051808215151515815260200191505060405180910390f35b6000600360003373ffffffffffffffffffffffffffffffffffffffff1673ffffffffffffffffffffffffffffffffffffffff168152602001908152602001600020600083815260200190815260200160002060009054906101000a900460ff169050919050565b806001600082815260200190815260200160002060009054906101000a900460ff16610422576040517f08c379a000000000000000000000000000000000000000000000000000000000815260040180806020018281038252601c8152602001807f4572726f722c20656c2070726f796563746f206e6f206578697374650000000081525060200191505060405180910390fd5b816000600381111561043057fe5b600360003373ffffffffffffffffffffffffffffffffffffffff1673ffffffffffffffffffffffffffffffffffffffff168152602001908152602001600020600083815260200190815260200160002060009054906101000a900460ff16600381111561049957fe5b146104ef576040517f08c379a000000000000000000000000000000000000000000000000000000000815260040180806020018281038252602a815260200180610c6e602a913960400191505060405180910390fd5b60016002600085815260200190815260200160002060000160018282829054906101000a900460ff160192506101000a81548160ff021916908360ff1602179055506002600360003373ffffffffffffffffffffffffffffffffffffffff1673ffffffffffffffffffffffffffffffffffffffff168152602001908152602001600020600085815260200190815260200160002060006101000a81548160ff0219169083600381111561059e57fe5b0217905550505050565b60036020528160005260406000206020528060005260406000206000915091509054906101000a900460ff1681565b60026020528060005260406000206000915090508060000160009054906101000a900460ff16908060000160019054906101000a900460ff16908060000160029054906101000a900460ff16905083565b6000809054906101000a900473ffffffffffffffffffffffffffffffffffffffff1673ffffffffffffffffffffffffffffffffffffffff163373ffffffffffffffffffffffffffffffffffffffff16146106cd576040517f08c379a0000000000000000000000000000000000000000000000000000000008152600401808060200182810382526030815260200180610c3e6030913960400191505060405180910390fd5b600180600083815260200190815260200160002060006101000a81548160ff02191690831515021790555050565b806001600082815260200190815260200160002060009054906101000a900460ff1661078f576040517f08c379a000000000000000000000000000000000000000000000000000000000815260040180806020018281038252601c8152602001807f4572726f722c20656c2070726f796563746f206e6f206578697374650000000081525060200191505060405180910390fd5b816000600381111561079d57fe5b600360003373ffffffffffffffffffffffffffffffffffffffff1673ffffffffffffffffffffffffffffffffffffffff168152602001908152602001600020600083815260200190815260200160002060009054906101000a900460ff16600381111561080657fe5b1461085c576040517f08c379a000000000000000000000000000000000000000000000000000000000815260040180806020018281038252602a815260200180610c6e602a913960400191505060405180910390fd5b60016002600085815260200190815260200160002060000160008282829054906101000a900460ff160192506101000a81548160ff021916908360ff1602179055506001600360003373ffffffffffffffffffffffffffffffffffffffff1673ffffffffffffffffffffffffffffffffffffffff168152602001908152602001600020600085815260200190815260200160002060006101000a81548160ff0219169083600381111561090b57fe5b0217905550505050565b806001600082815260200190815260200160002060009054906101000a900460ff166109a9576040517f08c379a000000000000000000000000000000000000000000000000000000000815260040180806020018281038252601c8152602001807f4572726f722c20656c2070726f796563746f206e6f206578697374650000000081525060200191505060405180910390fd5b81600060038111156109b757fe5b600360003373ffffffffffffffffffffffffffffffffffffffff1673ffffffffffffffffffffffffffffffffffffffff168152602001908152602001600020600083815260200190815260200160002060009054906101000a900460ff166003811115610a2057fe5b14610a76576040517f08c379a000000000000000000000000000000000000000000000000000000000815260040180806020018281038252602a815260200180610c6e602a913960400191505060405180910390fd5b60016002600085815260200190815260200160002060000160028282829054906101000a900460ff160192506101000a81548160ff021916908360ff16021790555060038060003373ffffffffffffffffffffffffffffffffffffffff1673ffffffffffffffffffffffffffffffffffffffff168152602001908152602001600020600085815260200190815260200160002060006101000a81548160ff02191690836003811115610b2457fe5b0217905550505050565b6000806000806002600086815260200190815260200160002060000160009054906101000a900460ff166002600087815260200190815260200160002060000160019054906101000a900460ff166002600088815260200190815260200160002060000160029054906101000a900460ff166002600089815260200190815260200160002060000160029054906101000a900460ff16600260008a815260200190815260200160002060000160019054906101000a900460ff16600260008b815260200190815260200160002060000160009054906101000a900460ff16010193509350935093509193509193565b60016020528060005260406000206000915054906101000a900460ff168156fe4572726f722c20736f6c6f20656c2041646d696e207075656465207265616c697a617220657374612061636369c3b36e4572726f722c20656c20636975646164616e6f20796120766f74c3b320657374652070726f796563746fa165627a7a72305820774e6e93ae3d23098c8b615620652a54e3e528592528010d0ebc84f79f03cc110029",
  "source": "pragma solidity ^ 0.5.8;\r\ncontract ParticiparContract {\r\n    \r\n    address admin;\r\n    \r\n    mapping(uint256 => bool) public proyectos;\r\n    mapping(uint256 => TipoVoto) public votosProyectos;\r\n    mapping(address => mapping(uint256 => EnumVoto)) public votosCiudadano;\r\n    struct TipoVoto {\r\n        uint8 favor;\r\n        uint8 neutro;\r\n        uint8 contra;\r\n    }\r\n    \r\n    enum EnumVoto {SIN_VOTAR, FAVOR, NEUTRO, CONTRA} //El valor por defecto de un Enum es el 0, es decir, el valor de la primer posición (SIN_VOTAR)\r\n\r\n\r\n    /*\r\n       Constructor. Asigna como admin a la address que lo instancie.\r\n    */\r\n    constructor() public{\r\n        admin = msg.sender;\r\n    }\r\n\r\n    /*\r\n       Chequea que el address que intenta hacer la transaccion sea el admin.\r\n    */\r\n    modifier soloAdmin {\r\n        require(msg.sender == admin, \"Error, solo el Admin puede realizar esta acción\");\r\n        _;\r\n    }\r\n    \r\n    /*\r\n       Chequea que el address que intenta hacer la transaccion (el ciudadano que vota), no haya votado ya este proyecto.\r\n    */\r\n    modifier soloSiNoVote(uint256 _id_proyecto) {\r\n        require(votosCiudadano[msg.sender][_id_proyecto] == EnumVoto.SIN_VOTAR , \"Error, el ciudadano ya votó este proyecto\");\r\n        _;\r\n    }\r\n   \r\n    /*\r\n       Chequea que el proyecto este cargado por el admin.\r\n    */\r\n    modifier soloSiExisteProyecto(uint256 _id_proyecto) {\r\n        require(proyectos[_id_proyecto], \"Error, el proyecto no existe\");\r\n        _;\r\n    }\r\n    \r\n    /*\r\n        Al llamar a esta función, se inicializa esta clave en el mapping de proyectos.\r\n        Es el workaround que encontré para tener algo similar a un array de proyectos.\r\n        Solo lo puede llamar el Admin.\r\n    */\r\n    function cargarProyecto(uint256 _id_proyecto) public soloAdmin {\r\n        proyectos[_id_proyecto] = true;\r\n    }\r\n    \r\n    function votarAFavor(uint256 _id_proyecto) public soloSiExisteProyecto(_id_proyecto) soloSiNoVote(_id_proyecto) {\r\n        votosProyectos[_id_proyecto].favor += 1;\r\n        votosCiudadano[msg.sender][_id_proyecto] = EnumVoto.FAVOR;\r\n    }\r\n\r\n    function votarNeutro(uint256 _id_proyecto) public soloSiExisteProyecto(_id_proyecto) soloSiNoVote(_id_proyecto) {\r\n        votosProyectos[_id_proyecto].neutro += 1;\r\n        votosCiudadano[msg.sender][_id_proyecto] = EnumVoto.NEUTRO;\r\n    }\r\n\r\n    function votarEnContra(uint256 _id_proyecto) public soloSiExisteProyecto(_id_proyecto) soloSiNoVote(_id_proyecto) {\r\n        votosProyectos[_id_proyecto].contra += 1;\r\n        votosCiudadano[msg.sender][_id_proyecto] = EnumVoto.CONTRA;\r\n    }\r\n    \r\n    /*\r\n        Para el proyecto recibido por parámetro, retorna:\r\n        - Votos a favor\r\n        - Votos neutros\r\n        - Votos en contra\r\n        - Votos totales sumados\r\n    */\r\n    function getVotosTotales(uint256 _id_proyecto) external view returns(uint8 favor, uint8 neutro, uint8 contra, uint8 total) {\r\n        return (\r\n            votosProyectos[_id_proyecto].favor,\r\n            votosProyectos[_id_proyecto].neutro,\r\n            votosProyectos[_id_proyecto].contra, \r\n            votosProyectos[_id_proyecto].favor + votosProyectos[_id_proyecto].neutro + votosProyectos[_id_proyecto].contra\r\n            );\r\n    }\r\n    \r\n    /*\r\n        Para el proyecto recibido por parámetro, retorna:\r\n        0 si el ciudadano no votó\r\n        1 si el ciudadano votó a favor\r\n        2 si el ciudadano votó neutro\r\n        3 si el ciudadano votó en contra\r\n    */\r\n    function getMiVoto(uint256 _id_proyecto) external view returns(EnumVoto) {\r\n        return votosCiudadano[msg.sender][_id_proyecto];\r\n    }\r\n    \r\n    \r\n    /*\r\n    function chequearSiVoteA(uint256 _id_proyecto) external view returns(bool) {\r\n        return votosCiudadano[msg.sender][_id_proyecto];\r\n    }\r\n    */\r\n}\r\n\r\n",
  "sourcePath": "C:/xampp/htdocs/unlam/ProyectoFinal/participar-dapp/contracts/ParticiparContract.sol",
  "compiler": {
    "name": "solc",
    "version": "0.5.8+commit.23d335f2.Emscripten.clang"
  },
  "schemaVersion": "3.0.16",
  "updatedAt": "2019-10-23T03:11:00.895Z",
  "devdoc": {
    "methods": {}
  },
  "userdoc": {
    "methods": {}
  }
}